{
  "txid": "4730aea4301091d4073a07b7eb28091c9f0dc445a3601e6b714d68a8af0da1d4",
  "hash": "4730aea4301091d4073a07b7eb28091c9f0dc445a3601e6b714d68a8af0da1d4",
  "version": 2,
  "size": 191,
  "vsize": 191,
  "weight": 764,
  "locktime": 0,
  "vin": [
    {
      "txid": "9b951c2b08142a8122f916bfec2fbe634e578faef1e89ae991b83303df8bc86e",
      "vout": 0,
      "scriptSig": {
        "asm": "304402207b7a74cd22e35925e00330eaa0f9e3aa5b3f449daba32236bb1bb742199a5c0502201e16cced25f0fce4557fe808ef23291eb85d2de81e030805b4371e5c772f69d1[ALL] 03d9c69d204e5bfa548bbf6236f12be6ddfa7b4151937210b0c78cc8e2bb34134d",
        "hex": "47304402207b7a74cd22e35925e00330eaa0f9e3aa5b3f449daba32236bb1bb742199a5c0502201e16cced25f0fce4557fe808ef23291eb85d2de81e030805b4371e5c772f69d1012103d9c69d204e5bfa548bbf6236f12be6ddfa7b4151937210b0c78cc8e2bb34134d"
      },
      "sequence": 4294967295
    }
  ],
  "vout": [
    {
      "value": 99989697000,
      "n": 0,
      "scriptPubKey": {
        "asm": "OP_DUP OP_HASH160 9a237782659d31103818426f577f1ef16bb1f9ae OP_EQUALVERIFY OP_CHECKSIG",
        "hex": "76a9149a237782659d31103818426f577f1ef16bb1f9ae88ac",
        "address": "BJW6AY3xAveXHgeMt5NG68Bq4UNDm9UNUs",
        "type": "pubkeyhash"
      }
    }
  ],
  "hex": "02000000016ec88bdf0333b891e99ae8f1ae8f574e63be2fecbf16f922812a14082b1c959b000000006a47304402207b7a74cd22e35925e00330eaa0f9e3aa5b3f449daba32236bb1bb742199a5c0502201e16cced25f0fce4557fe808ef23291eb85d2de81e030805b4371e5c772f69d1012103d9c69d204e5bfa548bbf6236f12be6ddfa7b4151937210b0c78cc8e2bb34134dffffffff01e8b1d947170000001976a9149a237782659d31103818426f577f1ef16bb1f9ae88ac00000000"
}
